:083C3E007F3B7E5ADEFEDFFC35
:013C4600225B
:103978007800EFF208EDF2123BCF7FA0123AE9127D
:1039880039D57801E2FF123AE91239D57800E2FF19
:0C399800123AE91239D5123C1D023C3EE7
:043909007802EFF25F
:10390D00123BCF7FA0123AE91239D57802E2FF12AD
:10391D003AE91239D5123BCF7FA1123AE91239D5C6
:10392D00123A687803EFF2D200123B8D123C1D78EB
:03393D0003E2FFA3
:013940002264
:0E3C0F0081838587898B8D80828486888A8C4C
:093B3F0087041212122602051679
:10394100C2B500C2B600D2B500E4FEEF1392B4EFE7
:10395100C313FFD2B600C2B6000EEEB408EDE4FE0A
:10396100ED1392B4EDC313FDD2B600C2B6000EEE54
:06397100B408EDC2B50030
:01397700222D
:1036BC00E4FEFDC2B500C2B600D2B500FBEF13921A
:1036CC00B4EFC313FFD2B600C2B6000BEBB408EDD7
:1036DC0000E4FBA2B4E433FDA803088002C333D892
:1036EC00FC2EFED2B600C2B6000BEBB408E5C2B598
:0C36FC0000C2B400C2B400D2B400AF069B
:01370800229E
:0A3C34007D807F8E123941C2B52257
:10361200E4FCEC903C0F93FF1236BC74042CF8EFE0
:10362200F20CECB407EC7806E2FFC4540F243078B5
:103632000EF2EF540F243008F2E408F27805E2FFAC
:10364200C4540F24307811F2EF540F243008F2E4FE
:1036520008F27804E2FFC4540F2430780BF2EF54DE
:083662000F243008F2E408F225
:01366A00223D
:10002E003A00CEE2000000000000000003800E0047
:10003E0003FFFE0003800E0003800E0003800E00FF
:10004E0003800E0003800E0003FFFE0003800C00F1
:10005E000000060000000F0007FFF98000070000F7
:10006E0000070000000701C0000F03E03FFFFFF094
:10007E00000F8000000FC000001CE000003C70006C
:10008E000078780000F01F0003C00FF00F0003E0AF
:10009E007C0000C000000000D0A1000000000000A5
:1000AE000000000780000007800000070000000726
:1000BE00000000070000000700000007000000C756
:1000CE00300001F7380001E71C0003C70E0003875C
:1000DE00070007870380070703C00E0701E00C0720
:1000EE0001E01C0700E0380700E070070000000781
:1000FE000000000700000007000000F70000003FAE
:10010E000000000E0000000C000000000000BBDB31
:10011E000000000000C0300000F03C0000EC39C0D0
:10012E003FFFFFE000E2386000FC39801FFFFFC098
:10013E0000E6384000EC38E03FFFFFF000E03830DA
:10014E0000C033000FFFFF80000007000000070013
:10015E0007FFFF00000007000000070007FFFF0079
:10016E0000CE000006F71B000EE399C00CE319E069
:10017E001CE01CE03CFFFC60003FF00000000000B3
:10018E0000000000C4EA0000000000C0000001F002
:10019E00000001E0000003C000C003C001E007FF43
:1001AE00FFF00703C0000E03C0001E03C0003C0397
:1001BE00C3007303C78063FFFFC00383C0000383C4
:1001CE00C0000383C0000383C0000383C0600383A9
:1001DE00C0F07FFFFFF80003C0000003C000000363
:1001EE00C0000003C0000003C0000003C0000003F5
:1001FE00C0000003C00000000000D4C200000000D8
:10020E000000000000E0070000FFFF8000F0078004
:10021E0000F0070000F0070000F0070000F00700F4
:10022E0000FFFF0000FFFF0000F0070000F00700D6
:10023E0000F0070000F0070000E0070000FFFF00DD
:10024E0000E0070000E0070000E0070001E0070003
:10025E0001C0070001C00700038007000780F700F8
:10026E000F007F001E001F0038001C000000000061
:10027E00C8D500000000000000000300030003FFCB
:10028E00FF8003FFFF8003800700038007000380C9
:10029E000700038007000380070003800700038028
:1002AE0007000380070003FFFF00038007000380A1
:1002BE000700038007000380070003800700038008
:1002CE00070003800700038007000380070003FF79
:1002DE00FF00038007000380070003800700030070
:1002EE00000000000000D0C7000000000000000069
:1002FE000380070003FFFF800380070003800700D1
:10030E000380070003FFFF00038007000380070040
:10031E0003FFFF0003FFFF00038707000387C000F2
:10032E0003C7810003C7838007FFFFC00707800054
:10033E000F0780001E0786001C078F003BFFFF8003
:10034E007007800000078000000780E0000781F042
:10035E007FFFFFF80000000000000000C6DA00007A
:10036E00000006000000079E0000079E7FF0079E1B
:10037E007FF0079FF8F03FFFF8F01F9E78F0079E82
:10038E0078F0079E78F007FE7FF0079E78F0079EC4
:10039E0078F0079E70F007FE70F0079E70F0079ED3
:1003AE007FF0079FFFF03FFFF0F0119070F003DC3D
:1003BE00F0F003DEE0F0078FE0F00F0FE0F00E0735
:1003CE00C0F01C038FF0380F03E0201C01C00000AA
:1003DE00000000000000000000000000000000000F
:1003EE0000000000000000000000000000000000FF
:1003FE0000000000000000000000000000000000EF
:10040E0000000000000000000000070007000700C9
:10041E0007000700020002000200020002000200B4
:10042E0000000000000007000700070000000000A9
:10043E00000000000000066006600CC0198011006C
:10044E00220000000000000000000000000000007C
:10045E00000000000000000000000000000000008E
:10046E0000000000000000000000000010401040DE
:10047E00104010407FE07FE0104010402080208030
:10048E007FE07FE020802080208020800000000020
:10049E000000000000000000020002000F801AC0E1
:1004AE0032C032C032001A000E00070003800380F3
:1004BE0002C032C032C032C012800F0002000200F1
:1004CE0000000000000000000000000070C050801E
:1004DE008880890089008B008A005FC075400620E5
:1004EE000A200A201A201220114021C0000000000C
:1004FE000000000000000000000000001C002600AC
:10050E0026002600260025C03880308058804900FD
:10051E00CD00C700C600C300652038C00000000033
:10052E000000000000003000380008000800100035
:10053E00600000000000000000000000000000004D
:10054E00000000000000000000000000000000009D
:10055E00000000000000002000400080018001002B
:10056E000300030006000600060006000600060053
:10057E0006000300030001000180008000400020FF
:10058E0000000000000040002000100018000800CD
:10059E000C000C0006000600060006000600060011
:1005AE0006000C000C00080018001000200040008F
:1005BE00000000000000000000000000000002002B
:1005CE000200020072703AE00F800F803AE0727003
:1005DE000200020002000000000000000000000007
:1005EE0000000000000000000000000000000000FD
:1005FE00020002000200020002007FF00200020070
:10060E0002000200020000000000000000000000D6
:10061E0000000000000000000000000000000000CC
:10062E0000000000000000000000000000000000BC
:10063E000000000000003000380008000800100024
:10064E00600000000000000000000000000000003C
:10065E00000000000000000000007FE0000000002D
:10066E00000000000000000000000000000000007C
:10067E00000000000000000000000000000000006C
:10068E00000000000000000000000000000000005C
:10069E0000000000000038003800380000000000A4
:1006AE0000000000000000200060004000C000803C
:1006BE000080010001000200020006000400040098
:1006CE0008000800100010003000200060004000FC
:1006DE000000000000000000000000000F00198064
:1006EE0030C030C06060606060606060606060609C
:1006FE006060606030C030C019800F0000000000E4
:10070E0000000000000000000000000002000600D3
:10071E003E00060006000600060006000600060063
:10072E00060006000600060006003FC0000000009E
:10073E000000000000000000000000001F002180EB
:10074E0040C060C060C000C0018001800300040092
:10075E0008001040204040407FC07FC000000000D5
:10076E000000000000000000000000001E0023003A
:10077E00618061806180018003000E000180008035
:10078E0000C060C060C060C021801F00000000007B
:10079E0000000000000000000000008001800380C7
:1007AE00038005800980098011802180218041808D
:1007BE007FE0018001800180018007E000000000E1
:1007CE000000000000000000000000003FC03FC01D
:1007DE0020002000200020002F00318020C000C00B
:1007EE0000C060C060C0418021801F00000000007A
:1007FE00000000000000000000000000078018C08C
:10080E0030C0300020006000678068C0706060609B
:10081E00606060602060304018C00F000000000073
:10082E000000000000000000000000001FE03FE09C
:10083E003040208020800080010001000200020074
:10084E00020006000600060006000600000000007A
:10085E000000000000000000000000001F8030C0FB
:10086E0060606060606070403CC00F00338020C0EC
:10087E00606060606060606030C00F8000000000EB
:10088E000000000000000000000000000F0030809B
:10089E0030C0604060606060606060E031601E602B
:1008AE00006000C000C0308031801E0000000000DB
:1008BE00000000000000000000000000000000002A
:1008CE000000000007000700070000000000000005
:1008DE0000000000000007000700070000000000F5
:1008EE0000000000000000000000000000000000FA
:1008FE0000000000000006000600000000000000DE
:10090E0000000000000000000600060002000400C7
:10091E0000000000000000000000002000400080E9
:10092E000100020004000800100020001000080062
:10093E0004000200010000800040002000000000C2
:10094E000000000000000000000000000000000099
:10095E000000000000007FE000000000000000002A
:10096E007FE000000000000000000000000000001A
:10097E000000000000000000000020001000080031
:10098E0004000200010000800040002000400080B2
:10099E00010002000400080010002000000000000A
:1009AE00000000000000000000000F8030C040601A
:1009BE0040606060606000C00180060004000400BA
:1009CE000400000000000E000E000E0000000000EB
:1009DE0000000000000000000000000007801C6006
:1009EE001020335026D0649064906890689069907F
:1009FE0069A066C03010302018400780000000004B
:100A0E0000000000000000000000000006000600CC
:100A1E000E000B000B0013001180118011801F803F
:100A2E0020C020C020C020606060F0F000000000F8
:100A3E00000000000000000000000000FF006180C8
:100A4E0060C060C060C060C061807F0060C06040F8
:100A5E00606060606060606060C0FF8000000000E9
:100A6E0000000000000000000000000007E0186019
:100A7E0030203020200060006000600060006000C8
:100A8E00600060203020304018800F000000000011
:100A9E00000000000000000000000000FE00618069
:100AAE0060C060C060606060606060606060606078
:100ABE006060606060C060C06380FE000000000087
:100ACE00000000000000000000000000FFC06040B9
:100ADE00602060006000610061007F0061006100C5
:100AEE0060006000602060206040FFC000000000D9
:100AFE00000000000000000000000000FFC060C009
:100B0E00602060206000610061007F006100610074
:100B1E0060006000600060006000F00000000000F7
:100B2E000000000000000000000000000F4018C090
:100B3E00304030402000600060006000600063F0D4
:100B4E0060C060C030C030C018C00F000000000090
:100B5E00000000000000000000000000F0F06060E7
:100B6E00606060606060606060607FE060606060D8
:100B7E0060606060606060606060F0F000000000C7
:100B8E000000000000000000000000003FC0060052
:100B9E000600060006000600060006000600060017
:100BAE00060006000600060006003FC0000000001A
:100BBE000000000000000000000000000FF00180A7
:100BCE00018001800180018001800180018001800F
:100BDE0001800180018001800180018061806300BD
:100BEE003E0000000000000000000000F3E0608006
:100BFE0061006200620064006C007C007600670099
:100C0E0063006380618060C060E0F1F0000000006E
:100C1E00000000000000000000000000F000600076
:100C2E0060006000600060006000600060006000B6
:100C3E0060006000602060206040FFC00000000087
:100C4E00000000000000000000000000F0F070E066
:100C5E0070E070E059605960596059605A604E609A
:100C6E004E604E604E6044604460E4F00000000050
:100C7E00000000000000000000000000E070702086
:100C8E007020582058204C204620462043204320D8
:100C9E0041A040E040E040604060E02000000000E5
:100CAE000000000000000000000000000F0019808E
:100CBE0030C0304060606060606060606060606046
:100CCE0060606060304030C019800F00000000008E
:100CDE00000000000000000000000000FF8060C067
:100CEE006060606060606060606060C07F806000B7
:100CFE0060006000600060006000F0000000000016
:100D0E000000000000000000000000000F0019802D
:100D1E0030C03040606060606060606060606060E5
:100D2E0060606E60324031C011800F8001E000C003
:100D3E00000000000000000000000000FF8060C006
:100D4E00606060606060606060C07F00660063002D
:100D5E0063006180618060C060C0F07000000000C0
:100D6E000000000000000000000000001F2030E026
:100D7E0060206020600070003C000F0003C000C0C7
:100D8E00006040604060606070C04F8000000000F6
:100D9E000000000000000000000000007FE0462080
:100DAE0086108610060006000600060006000600E5
:100DBE00060006000600060006000F0000000000F8
:100DCE00000000000000000000000000F070602035
:100DDE006020602060206020602060206020602005
:100DEE00602060206020602030401F8000000000E6
:100DFE00000000000000000000000000F8F070602D
:100E0E003040304030403080188018801880188074
:100E1E000D000D000D000F00060006000000000082
:100E2E00000000000000000000000000F7706620C7
:100E3E006620664066406740374037403B803B80C7
:100E4E003B803B8039801100110011000000000032
:100E5E0000000000000000000000000079E030C03B
:100E6E001880188019000D000E00060006000700FD
:100E7E000B000B801980118030C079E0000000005B
:100E8E00000000000000000000000000F8F070609C
:100E9E0030403080188018800D000D000E000600C6
:100EAE00060006000600060006001F800000000077
:100EBE000000000000000000000000003FE020C025
:100ECE0041C00180038003000300060006000C00F1
:100EDE000C0018001820382030407FC000000000A1
:100EEE0000000000000007E00400040004000400FD
:100EFE0004000400040004000400040004000400C4
:100F0E00040004000400040004000400040007E0D0
:100F1E000000000000000000000020001000100083
:100F2E001000080008000400040004000200020083
:100F3E0001000100010000800080004000400040E0
:100F4E000020000000003F00010001000100010030
:100F5E00010001000100010001000100010001007B
:100F6E0001000100010001000100010001003F002D
:100F7E0000000000000007000D801040000000007F
:100F8E000000000000000000000000000000000053
:100F9E000000000000000000000000000000000043
:100FAE000000000000000000000000000000000033
:100FBE000000000000000000000000000000000023
:100FCE000000000000000000000000000000000013
:100FDE00FFF000000000300038000800080010008C
:100FEE006000000000000000000000000000000093
:100FFE0000000000000000000000000000000000E3
:10100E0000000000000000000000000000000000D2
:10101E000000000000000F8030C030C007C01CC0B0
:10102E0030C060C060C060C071D03EF000000000F3
:10103E0000000000000000000000100070003000F2
:10104E0030003000300033803CC03860306030609B
:10105E00306030603060304038C02F8000000000BB
:10106E000000000000000000000000000000000072
:10107E000000000000000F003180318061806000B0
:10108E00600060006040304030800F0000000000C3
:10109E0000000000000000000000004001C000C081
:1010AE0000C000C000C01EC031C030C060C060C0F3
:1010BE0060C060C060C020C031E01E800000000033
:1010CE000000000000000000000000000000000012
:1010DE00000000000000078018C0106030603FE084
:1010EE0030003000300018201C4007800000000047
:1010FE0000000000000000000000000003C00660B9
:10110E000C600C000C007FC00C000C000C000C00DE
:10111E000C000C000C000C000C003F8000000000C6
:10112E0000000000000000000000000000000000B1
:10113E000000000000000F70199030C030C030C0A9
:10114E0019801F0030003E001FC06060606070E0BC
:10115E001F80000000000000000010007000300032
:10116E00300030003000378038C030C030C030C062
:10117E0030C030C030C030C030C079E00000000058
:10118E000000000000000000000000000600060045
:10119E000000000000003E000600060006000600EB
:1011AE00060006000600060006003FC00000000014
:1011BE00000000000000000000000000018001801F
:1011CE000000000000000F8001800180018001807E
:1011DE000180018001800180018001800180330047
:1011EE003E00000000000000000010007000300003
:1011FE0030003000300033C0310033003200360092
:10120E003E003B0033003180318079E00000000069
:10121E000000000000000000000002003E0006007A
:10122E000600060006000600060006000600060080
:10123E00060006000600060006003FC00000000083
:10124E000000000000000000000000000000000090
:10125E00000000000000EEE0776066606660666089
:10126E0066606660666066606660F770000000002B
:10127E000000000000000000000000000000000060
:10128E0000000000000073803CC030C030C030C091
:10129E0030C030C030C030C030C079E00000000037
:1012AE000000000000000000000000000000000030
:1012BE000000000000000F00198030C06060606008
:1012CE0060606060606030C030C00F0000000000E1
:1012DE000000000000000000000000000000000000
:1012EE00000000000000778038C030603060306051
:1012FE0030603060306030C038C037803000300031
:10130E007C00000000000000000000000000000053
:10131E000000000000001E4031C030C060C060C040
:10132E0060C060C060C020C031C01EC000C000C020
:10133E0003E00000000000000000000000000000BC
:10134E00000000000000F9E01A601C0018001800F0
:10135E0018001800180018001800FF000000000008
:10136E00000000000000000000000000000000006F
:10137E000000000000000FE01860302030001C005C
:10138E000F8001C02060206030C03F800000000050
:10139E00000000000000000000000000000004003B
:1013AE0004000C000C007F800C000C000C000C00E4
:1013BE000C000C000C000C400C40078000000000DC
:1013CE00000000000000000000000000000000000F
:1013DE0000000000104071C030C030C030C030C0BE
:1013EE0030C030C030C030C039E01E800000000078
:1013FE0000000000000000000000000000000000DF
:10140E000000000000007CF03860184018400C808E
:10141E000C800C800700070007000200000000008F
:10142E0000000000000000000000000000000000AE
:10143E00000000000000F7B0632063206720372013
:10144E0035C039C039C039C010801080000000008E
:10145E00000000000000000000000000000000007E
:10146E000000000000007DE0188019800D000E00C5
:10147E00060007000B00198011C07BE00000000081
:10148E00000000000000000000000000000000004E
:10149E000000000000007DE03880188018800D00EC
:1014AE000D000D00060006000200040004002800D6
:1014BE0038000000000000000000000000000000E6
:1014CE000000000000003FC02180238003000700C1
:1014DE0006000E000C201C2018603FC0000000000B
:1014EE0000000000000000000000000000000000EE
:1014FE0000000000000000000000000000000000DE
:10150E0000000000000000000000000000000000CD
:10151E0000000000000000000000000000000000BD
:10152E0000000000000000000000000000000000AD
:10153E00000000000000000000000000000000009D
:10154E00000000000000000000000000000000008D
:10155E00000000000000000000000000000000007D
:10156E00000000000000000000000000000000006D
:10157E00000000000000000000000000000000005D
:10158E00000000000000000000000000000000004D
:10159E00000000000000000000000000000000003D
:1015AE00000000000000000000000000000000002D
:1015BE00000000000000000000000000000000001D
:1015CE00000000000000000000000000000000000D
:0715DE000000000000000006
:10375300784EEEF208EFF208EAF208EBF28D828C73
:0137630083E2
:10376400784EE2FE08E2FF2402FBE43EFAE58224FE
:10377400027881F2E4358318F21237DEE47852F2EB
:103784007850E2FE08E2FF123AAA7852E204F2E22A
:05379400C3940940EBA5
:01379900220D
:072BAF007814EEF208EFF2CA
:102BB600E4781FF208F208F208F2AF037814E2FA9A
:102BC60008E2FBC3EF9B7824F2E49A18F2C3781A62
:102BD600E29D7926F318E29C19F3782FEAF208EBC6
:102BE600F2AF05782DECF208EFF27823E2FE08E268
:102BF600FFD39400EE6480948040097829E4F208BB
:102C060004F2801EEF4E70077829F208F2801374E2
:102C1600FF7829F208F2C3E49FFFE49E7823F208C6
:102C2600EFF27825E2FE08E2FFD39400EE6480948A
:102C3600804009782BE4F20804F2801EEF4E7007FC
:102C4600782BF208F2801374FF782BF208F2C3E4B3
:102C56009FFFE49E7825F208EFF27825E2FE08E26F
:102C6600FF7823E2FC08E2FDD39FEE6480F8EC6473
:102C7600809878274007ECF208EDF28005EEF2081E
:102C8600EFF2E4781DF208F27828E22401FF18E258
:102C96003400FED3781EE29F18E29E4003022D60A8
:102CA600782FE2FE08E2FF782DE2FC08E2FD781BB1
:102CB600E2FA08E2FB1237537823E2FE08E2FF78D5
:102CC60020E22FF218E23EF27825E2FE08E2FF78D3
:102CD60022E22FF218E23EF27827E2FE08E2FF78BF
:102CE6001FE2FC08E2FDD39FEE6480F8EC64809856
:102CF60040207827E2FE08E2FFED9F7820F2EC9E66
:102D060018F27829E2FE08E2FF7830E22FF218E2A4
:102D16003EF27827E2FE08E2FF7821E2FC08E2FDB7
:102D2600D39FEE6480F8EC64809840207827E2FE1A
:102D360008E2FFED9F7822F2EC9E18F2782BE2FE75
:102D460008E2FF782EE22FF218E23EF2781EE22425
:0A2D560001F218E23400F2022C8EA4
:012D60002250
:102E9C00784EEEF208EFF208ECF208EDF208EBF2E5
:062EAC0008EAF208E9F259
:102EB2007852E2FB08E2FA08E2F9121BDA70030226
:102EC2002FC1784EE2FE08E2FF08E2FC08E2FDEFC5
:102ED200241FFBE43EFAE2241C7981F318E2340059
:102EE20019F31237DEE4785BF2785BE2FFC39414E5
:102EF2004003022FA87852E2FB08E2FA08E2F91234
:102F02001BDAFE75F076EFA42430F582E5F034008A
:102F1200F583E4936E6003022FA0900001121BF36D
:102F2200FF785BE275F076A42431F582E5F0340097
:102F3200F583E4936F70677859F27859E2FFC3948E
:102F420074505B785BE275F076A42432F582E5F08A
:102F52003400F583E5822FF582E43583F583E4932B
:102F6200FF08E4F208EFF2E4785AF2785DE230E723
:102F720004785580027857E2FE08E2FF123AAA78F6
:102F82005DE225E0795DF318E23319F3785AE20441
:102F9200F2E2C3940840D47859E204F2809C785B50
:102FA200E204F2022EEB7854E22402F218E2340038
:0F2FB200F2784FE22420F218E23400F2022EB23D
:012FC10022ED
:102FC2007BFF7A00792EFF18E23400FE7850E2FC93
:102FD20008E2FD08E2F58308E2F582785DE583F216
:102FE20008E582F27854E2F58308E2F582785FE53B
:062FF20083F208E582F203
:102FF8007856EEF208EFF208ECF208EDF208EBF280
:0630080008EAF208E9F2FB
:10300E00785AE2FB08E2FA08E2F9121BDA700302C0
:10301E0030C824E07863F27856E2FE08E2FF08E258
:10302E00FC08E2FDEF240FFBE43EFAE2241779815F
:10303E00F318E2340019F31237DEE47862F27862A4
:10304E00E2FFC39430505A08E275F030A424E0F544
:10305E0082E5F03403F583E5822FF582E43583F5BE
:10306E0083E493FF08E4F208EFF2E47861F2786506
:10307E00E230E704785D8002785FE2FE08E2FF123C
:10308E003AAA7865E225E07965F318E23319F37808
:10309E0061E204F2E2C3940840D47862E204F28062
:1030AE009D785CE22401F218E23400F27857E224B3
:0A30BE0010F218E23400F202300EA6
:0130C80022E5
:1032A900FDE22430FB785EE2F58308E2F58278716D
:1032B900E583F208E582F27860E2F58308E2F582B7
:0932C9007873E583F208E582F256
:0B32D200786CEEF208EFF28D828C8326
:1032DD00EB24E07877F2786CE2FE08E2FF240FFB36
:1032ED00E43EFAE58224177881F2E4358318F21270
:1032FD0037DEE47876F27876E2FFC39430505A08E0
:10330D00E275F030A424E0F582E5F03403F583E5B1
:10331D00822FF582E43583F583E493FF08E4F20808
:10332D00EFF2E47875F27879E230E7047871800293
:10333D007873E2FE08E2FF123AAA7879E225E07985
:10334D0079F318E23319F37875E204F2E2C39408C5
:09335D0040D47876E204F2809D70
:013366002244
:103599007852EAF208EBF2784EEEF208EFF208EC14
:1035A900F208EDF27BFE7A00790E122FD5784FE200
:1035B9002420122FC2784FE224307BFE7A00791141
:1035C900122FC8784FE22450122FC2784FE224609C
:1035D900FF18E23400FE7850E2FC08E2FD7BFE7A37
:1035E90000790B08E2F58308E2F582785DE583F25C
:1035F90008E582F27854E2F58308E2F582785FE51E
:0936090083F208E582F2022FF8B9
:0D336700784EEEF208EFF208ECF208EDF2FD
:10337400EBC4540FFAEB540F7857F2EAD39409EAEA
:103384004007243708F2FA800624307858F2FA7895
:1033940057E2FFD394094005EF243780057857E2BC
:1033A400243008F218F2784EE2FE08E2FF08E2FC4C
:1033B40008E2FDAB027853E2F58308E2F582787106
:1033C400E583F208E582F278551232C2784FE2249E
:1033D40010FF18E23400FE7850E2FC08E2FD785752
:1033E400E2FB7853E2F58308E2F5827871E583F233
:1033F40008E582F27855E2F58308E2F5827873E510
:0934040083F208E582F20232D2E3
:1029D7007858EEF208EFF208ECF208EDF208EAF2A6
:0329E70008EBF208
:1029EA0078627C007DFE7BFF7A1579E07E007F05A8
:1029FA00121BB4C3785CE2648094807867502174B7
:102A0A002DF2785DE224FFF218E234FFF2E2FE08CA
:102A1A00E2F4FFEEF4FE18F208EFF2FDAC06800ACB
:102A2A00742BF2785CE2FC08E2FDEC1217E8786895
:102A3A00121CDBE4FFFE7DC87C407868E2FB08E2FA
:102A4A00F908E2FA08E2CBF81216DDE4FBFAF978A3
:102A5A003F1215EC121821785CEEF208EFF2785C5E
:102A6A00E2FA08E2FB7C277D10FFAE02121C3278E4
:102A7A0062EFF27C277D10AF03AE02121C327E0396
:102A8A007FE8CFCDCFCECCCE121C327863EFF2786E
:102A9A005CE2FA08E2FB7C037DE8FFAE02121C321C
:102AAA007E007F64CFCDCFCECCCE121C327864EFBD
:102ABA00F27C007D64AF03AE02121C327E007F0AF4
:102ACA00CFCDCFCECCCE121C327865EFF2785CE255
:102ADA00FE08E2FF7C007D0A121C327866EDF2786D
:102AEA0058E2FE08E2FF08E2FC08E2FD7867E2121B
:102AFA0032AD7859E22410FF18E23400FE785AE227
:102B0A00FC08E278631232A97859E22420FF18E21D
:102B1A003400FE785AE2FC08E278641232A9785945
:102B2A00E22430FF18E23400FE785AE2FC08E2FDA3
:102B3A00785EE2FB08E27871CBF208EBF27860E2A9
:102B4A00FB08E27873CBF208EBF27B2E1232D278D2
:102B5A0059E22440FF18E23400FE785AE2FC08E207
:102B6A00FD78651232AA7859E22450FF18E234003F
:102B7A00FE785AE2FC08E2FD7866E22430FB785ED1
:102B8A00E2F58308E2F5827871E583F208E582F2DC
:102B9A007860E2F58308E2F5827873E583F208E566
:052BAA0082F20232D2AC
:10351C00784EEEF208EFF208ECF208EDF208EAF25F
:03352C0008EBF2B7
:10352F007D017FA1123897500B7831E2FF7856E476
:10353F00F208EFF27D027FA112389750127857E20E
:10354F00FE7831E27C0024007857F2EC3E18F278D6
:10355F004EE2FE08E2FF08E2FC08E2FD7856E2FACE
:10356F0008E2FB7852E2F58308E2F582785EE583A4
:10357F00F208E582F27854E2F58308E2F58278608A
:0A358F00E583F208E582F20229D775
:083C47007F3B7E5ADEFEDFFC2C
:013C4F002252
:043C67000000002237
:05002600D2A1D2A022CE
:103BCF00D2A1D2A0123C67C2A0123C67C2A1023C94
:013BDF00677E
:0C3C1D00C2A0D2A1123C67D2A0023C67FA
:0539D000AF05123AE909
:1039D5007FFFD2A0123C67D2A130A00DEFD3940097
:1039E5004007DFF5123C1DD322123C67C2A1123CF1
:0239F50067C3A6
:0139F70022AD
:103B8D00300004D2A08002C2A0123C67D2A1123C28
:063B9D0067C2A1023C67B3
:103AE900E4FEEF3392A0EF25E0FF123C67D2A1126A
:0C3AF9003C67C2A1123C670EEEB408E668
:013B0500229D
:103A6800D2A0123C67E4FED2A1123C67EF25E0FF2A
:103A7800A2A0E4334FFFC2A1123C670EEEB408E7E0
:013A8800221B
:1039A400AC07123BCF1239D05002C322AF03123AF4
:1039B400E91239D55002C322AF04123AE91239D5BB
:0C39C4005002C322123C1D123C47D322CB
:10389700AC07123BCFEC14FF123AE91239D55002AC
:1038A700C3221239D05002C322123BCFAF04123ABF
:1038B700E91239D55002C322123A687831EFF2D2B1
:0938C70000123B8D123C1DD322BE
:063B48008132008139000A
:083C50007F027EEFDEFEDFFCC7
:013C58002249
:053C6100007F43DFFEBF
:013C6600223B
:103BA300D2ADD2CBD2BDC2CFE4F5CDF5CCF5CAF5BB
:063BB300CBD2AFD291223B
:03002B000230C9D7
:1030C900C0E0C0D075D000C000C004C005C006C0B3
:0130D90007EF
:1030DA007845E4F2C2CFC2CEC2CBC2AD123C503068
:1030EA0091030231AC7D64FC209113D3ED9400EC82
:1030FA009400400AED1D70011C123C6180EAED4CFF
:10310A0070030231AC7C007D32309113D3ED940010
:10311A00EC9400400AED1D70011C123C6180EAC368
:10312A00ED941EEC94005004ED4C700280747844C7
:10313A00E4F27843E4F23091FD7C007D143091187A
:10314A00D3ED9400EC9400400F123C617845E20400
:10315A00F2ED1D70E81C80E5ED4C70028044784465
:10316A00E2FF2433F8C000E2C313D000F27845E24C
:10317A00C39408400874332FF8E24480F27845E497
:10318A00F27843E204F2E2C3940840AA7844E204E3
:10319A00F2E2C39404409B78327401F27835E27803
:0631AA0039F2D2CBD2ADD8
:0F31B000D007D006D005D004D000D0D0D0E03268
:043A8900AD07AC06D3
:103A8D00ECFFAE05D2A5C2A7D2A6C2B28F80C2A549
:0C3A9D00D2A5AF068F80C2A5D2A5D2A78B
:013AA90022FA
:043AAA00AD07AC06B2
:103AAE00ECFFAE05D2A5C2A7D2A6D2B28F80C2A518
:0C3ABE00D2A5AF068F80C2A5D2A5D2A76A
:013ACA0022D9
:1022D000D2B37FF47E01EF1F70011EEF4E70F7C284
:1022E000B37E017FF4EF1F70011EEF4E70F7D2B383
:1022F0007E137F88EF1F70011EEF4E70F77FB07E58
:1023000000123BE07F3F7E001200127F3F7E0012F2
:1023100000127E017FF4EF1F70011EEF4E70F77FF9
:10232000B37E00123BE07F027E00120012E4FFFE4B
:10233000120012E4FFFE120012E4FFFE120012E48B
:10234000FFFE1200127FB47E00123BE0E4FFFE129B
:1023500000127FC07E00123BE07F337E001200122D
:102360007F4F7E00120012E4FFFE1200127F107EEB
:10237000001200127FA27E00120012E4FFFE120083
:10238000127F017E00120012E4FFFE1200127FC1D4
:102390007E00123BE07F017E001200127F027E0071
:1023A0001200127F207E001200127F087E001200B1
:1023B000127F087E001200127E137F88EF1F7001CB
:1023C0001EEF4E70F77FC37E00123BE07F017E0060
:1023D000120012E4FFFE1200127F287E001200128B
:1023E0007F087E001200127F087E001200127E011C
:1023F0007FF4EF1F70011EEF4E70F77FC47E001256
:102400003BE07F117E001200127F017E001200125D
:102410007F237E001200127F047E00120012E4FF70
:10242000FE1200127FC87E00123BE012000E7F0CED
:102430007E001200127F0B7E001200127F157E00BC
:102440001200127F117E001200127F097E0012001E
:102450001212000E7F077E001200127F137E001200
:1024600000127F107E001200127F207E00120012E8
:102470007F137E001200127F077E001200121200EE
:102480000E7F097E001200127F117E001200127F63
:10249000157E001200127F0B7E001200127F0C7E50
:1024A0000012001212000E12000E7F027E001200B7
:1024B000127FC97E00123BE012000E7F0C7E0012DC
:1024C000001212000E7F157E001200127F117E0096
:1024D0001200127F097E0012001212000E7F077E8A
:1024E000001200127F137E001200127F107E001275
:1024F00000127F207E001200127F137E0012001255
:102500007F077E0012001212000E7F097E0012006B
:10251000127F117E001200127F157E001200127FC2
:102520000B7E001200127F0C7E0012001212000EB1
:1025300012000E7F027E001200127FCA7E00123B44
:10254000E012000E7F0C7E001200127F0B7E001244
:1025500000127F157E001200127F117E0012001201
:102560007F097E0012001212000E7F077E0012000B
:10257000127F137E001200127F107E001200127F65
:10258000207E001200127F137E001200127F077E51
:102590000012001212000E7F097E001200127F113D
:1025A0007E001200127F157E001200127F0B7E004B
:1025B0001200127F0C7E0012001212000E12000E8A
:1025C0007F027E001200127FD07E00123BE07F333C
:1025D0007E001200127F537E001200127F877E0061
:1025E0001200127F3B7E001200127F307E0012002C
:1025F00012E4FFFE1200127FD17E00123BE07F2C1E
:102600007E001200127F617E001200127F107E0099
:102610001200127FD27E00123BE07F037E00120088
:10262000127F247E001200127FD47E00123BE07FD6
:10263000037E001200127F247E001200127FE27ED1
:1026400000123BE07F3F7E001200127E017FF4EF1C
:102650001F70011EEF4E70F77F357E00123A89E43D
:10266000FFFE1200127F367E00123BE0E4FFFE12F6
:1026700000127F3A7E00123BE07F557E001200126E
:102680007F2A7E00123BE0E4FFFE120012E4FFFE10
:10269000120012E4FFFE1200127FEF7E0012001201
:1026A0007F2B7E00123BE0E4FFFE120012E4FFFEEF
:1026B0001200127F017E001200127F3F7E00120086
:1026C000127F117E00123BE07E017FF4EF1F70014C
:1026D0001EEF4E70F77F297E00123A897E017FF44B
:1026E000EF1F70011EEF4E70F77F2C7E00123A89AB
:0D26F0007E017FF4EF1F70011EEF4E70F7AA
:0126FD0022BA
:04000E007F057E00EC
:10001200D2A5C2A7D2A6D2B28F80C2A5D2A5D2A79C
:0100220022BB
:103BE000D2A5C2A7D2A6C2B28F80C2A5D2A5D2A7A3
:013BF00022B2
:1037DE00787AEEF208EFF28D828C837F2A7E0012C9
:1037EE003BE018E2FE08E2FF123AAAAE02AF031265
:1037FE003AAA7F2B7E00123BE0AE83AF82123AAA2A
:10380E007880E2FE08E2FF123AAA7F2C7E00023A8E
:01381E008920
:103B2300AD07AC06C2A7D2B2D2A6ECF580C2A5D22D
:0C3B3300A5AF058F80C2A5D2A5D2A722A5
:07366B00784EEEF208EFF2C9
:1036720078807401F208743FF27BEF7A00E4FDFC7B
:10368200FFFE1237DEE47850F208F2E4FBFA784EDD
:10369200E2FE08E2FF123B230BBB00010AEB64F0DF
:1036A2004A70EB7851E22401F218E23400F2C308C6
:0936B200E2944018E2940140D2B8
:0136BB0022EC
:10349900544654B2CAC6C1B2E2CAD4B3CCD0F20DB2
:1034A9000A00CEE2D0A1BBDB005254432052656131
:1034B90064733A0054656D70657261747572653A2A
:1034C900004952636F64653A30780041543234439D
:1034D9003A00B6C1C8A1525443CAB1BCE40D0A00AE
:1034E900B6C1C8A144533138423230B4ABB8D0C6A2
:1034F900F7CEC2B6C80D0A00BDD3CAD5B5BDD0C274
:10350900B5C4BAECCDE2D2A3BFD8B0B4BCFCC2EB0F
:033519000D0A0098
:1026FE001222D0123BB9123BA3120026123C341206
:10270E0039F8123B59123C007BFF7A347999121E2C
:10271E00C474FFFFFE12366B7BFF7A3479AB7855AB
:10272E007480F208E4F274FF08F208F2E4FDFCFF94
:10273E00FE122E9C7BFF7A3479B2785D7480F2089B
:10274E00E4F274FF08F208F27D1E7C00E4FFFE1234
:10275E002FF812361274FF7854F208F27B007A804A
:10276E007D367C00E4FFFE1235997BFF7A3479BD0D
:10277E00785D7480F208E4F274FF08F208F27D4E80
:10278E007C00E4FFFE122FF8123B59AA06AB077825
:10279E005E7480F208E4F274FF08F208F27D667C43
:1027AE0000E4FFFE1229D77BFF7A3479CA785DE404
:1027BE00F208741FF274FF08F208F27D7E7C00E4CA
:1027CE00FFFE122FF87BFF7A3479D4785D7407F20E
:1027DE000874FFF208F208F27D967C00E4FFFE1208
:1027EE002FF8783AE2B40127C2A9E4F21236127435
:1027FE00FF7854F208F27B007A807D367C00E4FF8D
:10280E00FE1235997BFF7A3479DB121EC4D2A97879
:10281E003DE2B4012EE4F2C2A9123B59AA06AB075F
:10282E00785E7480F208E4F274FF08F208F27D66B6
:10283E007C00E4FFFE1229D7D2A97BFF7A3479E916
:10284E00121EC47832E264017061F27834E2FB78D1
:10285E0053E4F208741FF274FF08F208F27D7E7CD6
:10286E00007F907E001233677833E2FB7853E4F2F8
:10287E0008741FF274FF08F208F27D7E7C007FB0B0
:10288E007E001233677835E2FB7853E4F208741F4A
:10289E00F274FF08F208F27D7E7C007FD07E00127B
:1028AE0033677BFF7A357901121EC47835E2B4079F
:1028BE0005E4F2123A467835E2B41517E4F274FFE5
:1028CE007854F208F2FB7A077D967C007F607E00DA
:1028DE0012351C30A4030227F01231BF783EE2FEFF
:1028EE0008E2FFE4FCFD7846121CDB7846E2FC08A9
:1028FE00E2FD08E2FE08E22450FFEE34FFFEED3466
:10290E00FFFDEC34FFFCE47BF0FAF9F8121C68E4EE
:10291E007B5C7A0EF9F812379A7846121CDB7840F7
:10292E00E2FE08E2FFE4FCFD784A121CDB784AE284
:10293E00FC08E2FD08E2FE08E22460FFEE34FFFE32
:10294E00ED34FFFDEC34FFFCE47B3F7A01F9F81225
:10295E001C68E47BFC7A0DF9F812379A784A121C3F
:10296E00DBE47FEFFEFDFC7846E2FB08E2F908E2CD
:10297E00FA08E2CBF8D3121CC540097846121CE7C0
:10298E00000000EFE47F3F7E01FDFC784AE2FB0889
:10299E00E2F908E2FA08E2CBF8D3121CC540097836
:1029AE004A121CE70000013F78460808E2FE08E2E2
:1029BE00FFC006080808E2FE08E2FDAC06D0067B62
:0929CE00FF7A071237530227F0CB
:103ACB00D3EF9400EE940040147D6E7C00ED1D70DE
:0D3ADB00011CED4C70F7EF1F70E61E80E33C
:013AE80022BB
:1039F800C2B77B46AF031BEF70FAD2B7E4FB30B710
:103A0800130BEBD3940540037F00227F017E001245
:063A18003ACB80EA7F01B9
:013A1E002285
:0C3709001239F87F017E00123ACB7FCC11
:10371500E4FBFAC2B77851E22401F218E23400F270
:10372500EF1392B7E4F2087406F2785008E2FD242C
:10373500FFF218E2FC34FFF2ED4C70EED2B7EFC3A6
:0D37450013FF0BBB00010AEB64084A70C6BD
:013752002254
:10381F007D087C00C2B70FBF0000D2B70FBF0000FA
:10382F000FBF0000A2B7E433C43333335480FBE936
:10383F00C3134BF97E007F04EF1FAA0670011E4AC7
:0D384F0070F6ED1D70011CED4C70C9AF014D
:01385C002249
:0F3BF1001237097F441237157F647E00023ACBEA
:080003001237097FBE02371518
:103B5900E4FFFE123BF112000312381F784FEFF217
:093B690012381FEFFEE2FDEDFF32
:013B72002230
:103A4600123B59AD07AC06ECFF3395E0ED784EF22C
:103A56007B017DA01239A4784EE2FF7B027DA00295
:023A660039A481
:0A3B4E00813D00813A00823B000037
:0F3C0000438901E4F58CF58AD2A9D28CD2AF2288
:03000B0002385D5B
:10385D00C0E0C0D075D000C000758C8F758AFF7820
:10386D003CE22401F218E23400F2187401F2783CC3
:10387D00E264C8700218E2700A783D04F2783BE405
:0A388D00F208F2D000D0D0D0E032F3
:0B3C2900C2A1D2A3D2A2D2A1C2A3224A
:103B0600C2A1E4FEEFC4131313540124FF92A2EFE3
:0C3B160025E0FFC2A1D2A10EEEB408E829
:013B22002280
:1038D000E47872F208F2C2A1FDFC7873E225E07987
:1038E00073F318E23319F3D2A1C2A1A2A0E433FF0B
:1038F000E2F208E24FF20DBD00010CED640C4C70D9
:08390000D97872E2FE08E2FF33
:01390800229C
:072D6100EEF208EFF27F9093
:022D6800AB07B7
:102D6A00C2A1C2A3E47858F2AF03123B06785974A1
:102D7A0006F27859E214F2E270F8D2A10000C2A178
:102D8A0000001238D07858E225E0245AF8EEF2080A
:102D9A00EFF27858E204F2E2C3940A40CBD2A3E4F9
:102DAA007858F27858E2FFC394095077EF0408F292
:102DBA007859E2FFC3940A5063EF25E0245AF8E2F7
:102DCA00FE08E2FF7858E2FB25E0245BF9C3E39FA3
:102DDA0019E39E5040EB25E0245AF8E2FE08E2FF90
:102DEA00E4FCFD786E121CDB7859E2FA25E0245ADD
:102DFA00F8E2FE08E2FFEB25E0245AF8EEF208EFCB
:102E0A00F2786E0808E2FE08E2FFEA25E0245AF8A2
:102E1A00EEF208EFF27859E204F280947858E2046C
:102E2A00F28080786E121CE7000000007858740265
:102E3A00F2786EE2FB08E2F908E2FA08E2CBF8C09F
:102E4A00007858E225E0245AF8E2FE08E2FFE4FCA2
:102E5A00FDD000EB2FFFEA3EFEED39FDEC38FC78A1
:102E6A006E121CDB7858E204F2E2B408C4786EE20F
:102E7A00FC08E2FD08E2FE08E2FFE47B06FAF9F844
:102E8A0012379A786E121CDB786E0808E2FE08E2A6
:012E9A00FF38
:012E9B002214
:1031BF00123C297FD0122D68784E122D617854EE73
:1031CF00F208EFF27FD0122D687850122D61AD0703
:1031DF00AC067850E2FE08E2FF784EE2FA08E2FB16
:1031EF00D39FEA9E400BEB9F7853F2EA9E18F28032
:1031FF0014784EE2FE08E2FFC37851E29F7953F351
:10320F0018E29E19F37854E2FE08E2FFD39DEE9C7C
:10321F00400BEF9D7857F2EE9C18F280117854E234
:10322F00FE08E2FFC3ED9F7857F2EC9E18F2D378B9
:10323F0053E2943218E29400500B7857E29432180C
:10324F00E2940040037F00227850E2FE08E2FF780C
:10325F004FE22FFF18E23EC313793EF3EF1309F34A
:10326F007855E22DFF18E23CC31309F3EF1309F36E
:10327F00783FE254F0F27841E254F0F2C3783FE243
:10328F00946418E29400400CD37841E294D818E289
:09329F00940E40037F00227F0120
:0132A8002203
:103BB900759850438920758780758DF3758BF3D27D
:063BC900AFD28ED299225A
:083C59008F993099FDC29922F8
:03002300023B732A
:103B7300C0E0C0D075D000C0003098077842E59906
:0A3B8300F2C298D000D0D0D0E0329A
:0300000002340DBA
:0C340D00787FE4F6D8FD7581210234546C
:1015E50002188DE86480F8E933E83360110460F08F
:1015F500ED33EC337009E8FCE9FDEAFEEBFF22046C
:1016050060DED3EB9FEA9EE99DE8C2E78CF0C2F766
:1016150095F0400CE8CCF8E9CDF9EACEFAEBCFFB32
:1016250012185885D0F05804700320D5B3E804701B
:10163500075002B2D502189792D5EC0460F7E4CCB6
:10164500C0E0C398F8603B94186008400DD0E0FBFB
:1016550002186FE4FBFAC9FC8028E830E406E4C907
:10166500FBE4CAFCE830E305E4C9CACBFCE854074F
:101675006010F8C3E913F9EA13FAEB13FBEC13FC5A
:10168500D8F130F52FC3E49CFCEF9BFFEE9AFEEDFD
:1016950099FDD0E0FBEF4E4D4C701222DB03021892
:1016A50094EC2CFCEF33FFEE33FEED33FDED30E72C
:1016B500EB02186FEF2BFFEE3AFEED39FDD0E0FBA4
:1016C50050130BBB0003021897ED13FDEE13FEEF4D
:0816D50013FFEC13FC02186F77
:1016DD00EC4D6011E8497017ED33EC3304600DE407
:1016ED00FCFFFEFD22E933E8330470F802188D1279
:1016FD00185858046009E4CC24815006285009027A
:10170D001897284003021894C0E0EB4A7044B98042
:10171D0006D0E0FB021883EF4E701CBD8008EBFF76
:10172D00EAFEE9FD80EBE98DF0A4FEE5F00217C6B7
:10173D00E9CDF9EAFEEBFFEF89F0A4FCE5F0CE89E7
:10174D00F0A42EFFE435F0CD89F0A42DFEE435F0A4
:10175D008067EF4E7005BD80D780C3EF8BF0A4ACD2
:10176D00F0EE8BF0A42CFCE435F0F8EF8AF0A42C0D
:10177D00E5F038FCE433CB8DF0A42CFCE5F03BF820
:10178D00EE8AF0A42CFCE5F038F8E433CF89F0A410
:10179D002CFCE5F038CF3400CE89F0A42FFFE5F016
:1017AD003EFEE433C98DF0A42EFEE5F039CD8AF06E
:1017BD00A42FFFE5F03EFEE43DFD33D0E0FB5007E6
:1017CD000BBB000F021897EC2CFCEF33FFEE33FE32
:0617DD00ED33FD02186F60
:1017E30075F020800E75F010800575F0087D007E81
:1017F300007F003392D530D503121CB7EC33401071
:10180300EF33FFEE33FEED33FDEC33FCD5F0ED2289
:0E181300E5F0247EA2D513CC92E7CDCEFF22C5
:10182100EDD2E7CD33EC3392D524814006E4FFFEBF
:10183100FDFC22FCE4CFCECDCC24E0501174FF801E
:10184100EDC3CC13CCCD13CDCE13CECF13CF0470BB
:07185100F030D5DE021CB7E8
:101E6200E5082451F8E2050822784E30070278513D
:101E7200E475F001121D00021BDA2000EB7F2ED266
:101E8200008018EF540F2490D43440D4FF30040B58
:101E9200EF24BFB41A0050032461FFE50960021564
:101EA20009050CE50C7002050B30070D784EE47540
:101EB200F001121D00EF021C20023A1F7403D20728
:101EC2008003E4C207F508784E121D10E4F509F507
:101ED2000BF50CE50960077F20121E9D80F5750A3F
:101EE200FFC201C200C202C203C205C206C2081278
:101EF2001E6BFF700D3007057F00121EAEAF0CAED9
:101F02000B22B4255FC2D5C204121E6BFF24D0B4CB
:101F12000A00501A75F00A780930D50508B6FF0193
:101F220006C6A426F620D5047002D20380D924CF97
:101F3200B41A00EF5004C2E5D20402219AD2018001
:101F4200C6D20080C0D20280BCD2D580BAD205806F
:101F5200B47F20121E9D2002077401B5090040F1D2
:101F6200121E62FF121E9D021ED5D208D206809555
:101F7200121E62FB121E62FA121E62F94A4B7006B0
:101F820079917A227BFF20022EE509602A7E008E5B
:101F920082758300121BF360060EEE650A70F0C2B2
:101FA200D5EBC0E0EAC0E0E9C0E0EE1221FAD0E0F1
:101FB200F9D0E0FAD0E0FB121BDAFF60AAEBC0E036
:101FC200EAC0E0E9C0E0121E9DD0E02401F9D0E0B1
:101FD2003400FAD0E0FBE50A0460DCD50AD9808738
:101FE200D20280A21221DD60F7E50A700104121804
:101FF200A2A90A600DE50A600914F50A122284EF0B
:1020020060F3EA30E702F404C3995077EAF4250A50
:102012000430E701E404F50A800D1221DD60C1EA13
:10202200050A250A1218A2EA7864F230E701E425CB
:102032000A04D50A04200501141221FAE4C0E012B0
:1020420022847864E2601320E70714F2121E85806E
:102052002204F2D0E014C0E07F00121E85E50A607F
:1020620007121E7C150A800B300503121E7CD0E07D
:10207200021ED5D0E00480C51221DD60A0E50A046D
:102082001218A27864EAF2E50A200502600104242B
:0C209200041221FA74FF04C0E012228442
:10209E00121E85E50A2005026003121E7CD0E0B5F3
:1020AE000AE87F45121E8F7864E27F2B30E7047FAB
:1020BE002DF404C0E0121E9DD0E075F00A84C0F02D
:1020CE00121E86D0E0121E86021ED579108002796D
:1020DE0008C206C2088008D2D5790A8004790AC2DD
:1020EE00D5E50A047002F50AE4FAFDFEFF121E623F
:1020FE00FC7B08200113121E62FD7B1030000A12B9
:10210E001E62FE121E62FF7B20EC3382D592D550EA
:10211E0013C3E43000069FFFE49EFEE42001039DFE
:10212E00FDE49CFCE4CBF8C201EC700CCFCECDCC20
:10213E00E824F8F870F38017C3EF33FFEE33FEEDAB
:10214E0033FDEC33FCEB33FB994002FB0FD8E9EB8C
:10215E00300105F8D0E0C448B201C0E00AEC4D4EA3
:10216E004F78207B0070C2EAB50A0040BCC0E01276
:10217E0021FCD0F0D0E0200104C4C0E0C4B201C004
:10218E00F0121E86D0F0D5F0EB021ED5121D191FCF
:10219E00725320D9581F434C1F3F4220DD4F20E57C
:1021AE004420E5491F584320EB55201C46207A4514
:1021BE001FE64722B1501F472D1F4B2E1F6E2B1FA0
:1021CE004F231F6C20229A2A1F074800001F66E526
:1021DE000AB4FF03750A06121E62FC121E62FD127D
:1021EE001E62FE121E62FF785D0218D1790AA2D518
:1021FE00200314300509B910020404B9080104A221
:10220E00D52006025001042002689202B509005042
:10221E0034C0E07F203003197F30A20272067205AF
:10222E00500F122253C202C206C205C2087F30806E
:10223E000F300503E9C0E0121E9D300503D0E0F912
:10224E00D0E0B509CC3005177F30B9100C121E9DA9
:10225E007F583004077F788003B90803121E9D3023
:10226E0002057F2D021E9D7F202008F87F2B200661
:10227E00F322920280CF7F00B407005005245DF850
:10228E00E2FF22286E756C6C2900D201121E62309C
:10229E0001F8C201780930D50108F6021F072D504A
:1022AE00434958121E622403B405004001E49022F3
:1022BE00AC93121E8E743A121E8ED203750904024E
:0222CE0020D915
:10185800E9D2E7C933E833F892D5EDD2E7CD33ECD6
:0718680033FC5002B2D5224F
:10186F00EC30E7100FBF000C0EBE00080DBD0004DA
:10187F000BEB6014A2D5EB13FCED92E7FD2274FF86
:10188F00FCFDFEFF22E480F8A2D574FF13FC7D80DF
:03189F00E480EFF3
:1018A200F920E72824F950037907E4F42402FB180D
:1018B200DBFDE224FB5014E9600DE4F218E204F2CD
:0F18C200B40A08E4F2D9F57401F20A22C2D52261
:1018D100ED33EC3392D5FA602AB4FF33EDC2E77BE6
:1018E100FF60067A1879F6E4227A1879FF20D50488
:1018F1007A1879FA224E614E002B494E46002D4945
:101901004E4600E47A08F208DAFC7B00740722E80C
:10191100C0E0ECC0E0EDC0E0EEC0E0EFC0E0EA7591
:10192100F010A4CAABF075F04DA42BFBE435F0FC2C
:10193100EA2410FAEB34C5FBEC34D9FCEDC2E7FF25
:1019410075F056A4F42411C5F0F434C58FF0A42A1F
:10195100E5F03BE43CF220E714121AA4D0E0FFD0FA
:10196100E0FED0E0FDD0E0FC1219D78014F404129F
:101971001AA4D0E0FFD0E0FED0E0FDD0E0FC1216CA
:10198100DDD0E0F8E2FAEDD2E7CD33EC332482FB8F
:10199100E4C3CF33CFCE33CECD33CD33DBF37B07AF
:1019A10075F00A846004F2081B0AE5F0F2088FF072
:1019B100740AA4FFACF08EF0740AA42CFEACF050B3
:1019C100010C8DF0740AA42CFDE435F0F208DBDE85
:0319D10074072276
:1019D400021897EC5D046005E85904700302188D41
:1019E400121858580460F6EC4860F2EC7004FDFEDE
:1019F400FF22C860DB2481C85009C39860025006E6
:101A04000218949850CAF582E9294B4A7005AB82B2
:101A140002188375F0007C1A7880C3EF9BEE9AED70
:101A240099400DC3EF9BFFEE9AFEED99FDE842F05D
:101A3400DC23ACF0D0E0FFD0E0FED0E0FDAB8220B0
:101A4400E7101BEB60BAEC2CFCEF33FFEE33FEED3A
:101A540033FD02186FE803F830E705C0F075F000B5
:101A6400EF2FFFEE33FEED33FD40B830E7C280AA1E
:101A74003F8000004120000042C80000447A00007A
:101A8400461C400047C35000497424004B189680FC
:101A94004CBEBC205A0E1BCA6753C21C749DC5AEF3
:101AA400FB60065407601C2323121AD2EB543860DF
:101AB40009121ABE121ACD1216DDECF8EDF9EEFA7F
:101AC400EFCB22EB121ACD80F1543803241C901A68
:101AD40074FE93FC0EEE93FD0EEE930ECE93FF2256
:103419000226FEE493A3F8E493A34003F68001F2A5
:1034290008DFF48029E493A3F85407240CC8C333B4
:10343900C4540F4420C8834004F456800146F6DF83
:10344900E4800B0102040810204080903B3FE47E99
:10345900019360BCA3FF543F30E509541FFEE49378
:10346900A360010ECF54C025E060A840B8E493A33F
:10347900FAE493A3F8E493A3C8C582C8CAC583CA6A
:10348900F0A3C8C582C8CAC583CADFE9DEE780BE22
:013B5800006C
:101AE400E709F608DFFA8046E709F208DFFA803EE4
:101AF40088828C83E709F0A3DFFA8032E309F608D1
:101B0400DFFA8078E309F208DFFA807088828C8338
:101B1400E309F0A3DFFA806489828A83E0A3F608EC
:101B2400DFFA805889828A83E0A3F208DFFA804CC6
:101B340080D280FA80C680D4806980F2803380109D
:101B440080A680EA809A80A880DA80E280CA803306
:101B540089828A83ECFAE493A3C8C582C8CCC5837E
:101B6400CCF0A3C8C582C8CCC583CCDFE9DEE7804E
:101B74000D89828A83E493A3F608DFF9ECFAA9F0CD
:101B8400EDFB2289828A83ECFAE0A3C8C582C8CC23
:101B9400C583CCF0A3C8C582C8CCC583CCDFEADE3C
:101BA400E880DB89828A83E493A3F208DFF980CC9E
:101BB40088F0EF60010E4E60C388F0ED2402B40497
:101BC4000050B9F582EB2402B4040050AF2323453E
:061BD4008223901B347314
:101BDA00BB010689828A83E0225002E722BBFE0209
:091BEA00E32289828A83E493223C
:101BF300BB010CE58229F582E5833AF583E02250A7
:101C030006E92582F8E622BBFE06E92582F8E222F0
:0D1C1300E58229F582E5833AF583E493220A
:101C2000BB010689828A83F0225002F722BBFE01A3
:021C3000F3229D
:101C3200C2D5EC30E709B2D5E4C39DFDE49CFCEECD
:101C420030E715B2D5E4C39FFFE49EFE121D3FC3E9
:101C5200E49DFDE49CFC8003121D3F30D507C3E4E4
:061C62009FFFE49EFE223C
:101C6800E88FF0A4CC8BF0A42CFCE98EF0A42CFC1B
:101C78008AF0EDA42CFCEA8EF0A4CDA8F08BF0A499
:101C88002DCC3825F0FDE98FF0A42CCD35F0FCEBF8
:101C98008EF0A4FEA9F0EB8FF0A4CFC5F02ECD39BD
:0F1CA800FEE43CFCEAA42DCE35F0FDE43CFC222A
:10379A00C2D5E830E70FB2D5E4C39BFBE49AFAE45A
:1037AA0099F9E498F8EC30E717B2D51237D0121D20
:1037BA00D0E4C39BFBE49AFAE499F9E498F880030D
:1037CA00121DD030D50DE4C39FFFE49EFEE49DFD9B
:0437DA00E49CFC224D
:0E1CB700C3E49FFFE49EFEE49DFDE49CFC223E
:101CC500EB9FF5F0EA9E42F0E99D42F0EC6480C896
:061CD50064809845F02236
:0C1CDB00ECF208EDF208EEF208EFF22245
:101CE700D083D082E493F208740193F208740293CC
:091CF700F208740393F274047303
:101D0000FAE2FB0808E2F925F0F218E2CA3AF222F8
:091D1000EBF208EAF208E9F22204
:101D1900D083D082F8E4937012740193700DA3A359
:101D290093F8740193F5828883E47374029368606D
:061D3900EFA3A3A380DF6D
:103A1F00EFB40A07740D123A2A740A309811A89954
:103A2F00B8130CC2983098FDA899C298B811F63007
:073A3F0099FDC299F59922DF
:101D3F00BC000BBE0029EF8DF084FFADF022E4CC88
:101D4F00F875F008EF2FFFEE33FEEC33FCEE9DEC51
:101D5F00984005FCEE9DFE0FD5F0E9E4CEFD22ED97
:101D6F00F8F5F0EE8420D21CFEADF075F008EF2FE1
:101D7F00FFED33FD4007985006D5F0F222C398FDD2
:051D8F000FD5F0EA226F
:101D940075F008758200EF2FFFEE33FECD33CDCC06
:101DA40033CCC58233C5829BED9AEC99E582984089
:101DB4000CF582EE9BFEED9AFDEC99FC0FD5F0D666
:101DC400E4CEFBE4CDFAE4CCF9A88222B800C1B990
:101DD4000059BA002DEC8BF084CFCECDFCE5F0CBCE
:101DE400F97818EF2FFFEE33FEED33FDEC33FCEB07
:101DF40033FB10D703994004EB99FB0FD8E5E4F9C2
:101E0400FA227818EF2FFFEE33FEED33FDEC33FCAE
:101E1400C933C910D7059BE99A4007EC9BFCE99AA2
:101E2400F90FD8E0E4C9FAE4CCFB2275F010EF2FE7
:101E3400FFEE33FEED33FDCC33CCC833C810D707E7
:101E44009BEC9AE899400AED9BFDEC9AFCE899F822
:0E1E54000FD5F0DAE4CDFBE4CCFAE4C8F922B5
:00000001FF
